:107E0000112484B714BE81FFA8C082E08093C00013
:107E100088E18093C10096E09093C20090E1909336
:107E2000C400809360008EE080936000A89508E114
:107E300028E0D22E33E0C32EBB24B39445E0A42E19
:107E400051E1952E99D0813461F496D0182FA0D0AD
:107E5000115884E0123008F083E087D080E185D0AB
:107E6000F1CF823431F414E187D01150E9F790D08A
:107E7000F5CF853431F480D07FD07ED07DD07CD0DA
:107E8000F6CF853539F478D0C82F76D0D82FCC0FDF
:107E9000DD1FEDCF863539F46FD06ED06DD06CD04C
:107EA00077D080E0DACF843609F02FC065D064D077
:107EB000182F62D0FE01C7BEE895E12CFF24F39491
:107EC000E116F0F065D007B600FCFDCFFE01A0E0A2
:107ED000B1E011969C9111978C910C01B7BEE89579
:107EE000112412963296A03881E0B80791F7FE016E
:107EF000A7BEE89507B600FCFDCF97BEE895AECFCC
:107F00003BD0F70181937F01DBCF8437A9F434D0D4
:107F100033D0182F31D03CD07E018C2E810EF7014A
:107F20008FEFE81AF80A849120D08E10F8CF2196AE
:107F30001150C10FD11D92CF853739F429D08EE170
:107F400014D085E912D08FE088CF813509F08FCF2A
:107F500000936000D09260008ACF88E18093600037
:107F600010926000F0E0E0E009949091C00095FF6D
:107F7000FCCF8093C60008958091C00087FFFCCF9E
:107F80008091C00084FD01C0A8958091C60008952D
:107F9000F3DF803211F484E1E8CF88E18093600060
:087FA00088E080936000FFCF30
:0400000300007E007B
:00000001FF
